{
  "contractName": "Mood",
  "abi": [
    {
      "inputs": [],
      "stateMutability": "nonpayable",
      "type": "constructor"
    },
    {
      "inputs": [
        {
          "internalType": "address",
          "name": "",
          "type": "address"
        }
      ],
      "name": "moods",
      "outputs": [
        {
          "internalType": "enum Mood.MoodStates",
          "name": "",
          "type": "uint8"
        }
      ],
      "stateMutability": "view",
      "type": "function",
      "constant": true
    },
    {
      "inputs": [
        {
          "internalType": "address",
          "name": "",
          "type": "address"
        }
      ],
      "name": "moodsStr",
      "outputs": [
        {
          "internalType": "string",
          "name": "",
          "type": "string"
        }
      ],
      "stateMutability": "view",
      "type": "function",
      "constant": true
    },
    {
      "inputs": [],
      "name": "owner",
      "outputs": [
        {
          "internalType": "address",
          "name": "",
          "type": "address"
        }
      ],
      "stateMutability": "view",
      "type": "function",
      "constant": true
    },
    {
      "inputs": [],
      "name": "getMood",
      "outputs": [
        {
          "internalType": "string",
          "name": "",
          "type": "string"
        }
      ],
      "stateMutability": "view",
      "type": "function",
      "constant": true
    },
    {
      "inputs": [],
      "name": "setHappyMood",
      "outputs": [],
      "stateMutability": "payable",
      "type": "function",
      "payable": true
    },
    {
      "inputs": [],
      "name": "setAnxiousMood",
      "outputs": [],
      "stateMutability": "payable",
      "type": "function",
      "payable": true
    },
    {
      "inputs": [],
      "name": "setSadMood",
      "outputs": [],
      "stateMutability": "payable",
      "type": "function",
      "payable": true
    },
    {
      "inputs": [],
      "name": "setPurposefulMood",
      "outputs": [],
      "stateMutability": "payable",
      "type": "function",
      "payable": true
    },
    {
      "inputs": [],
      "name": "setLonelyMood",
      "outputs": [],
      "stateMutability": "payable",
      "type": "function",
      "payable": true
    },
    {
      "inputs": [],
      "name": "setPainfullyMood",
      "outputs": [],
      "stateMutability": "payable",
      "type": "function",
      "payable": true
    },
    {
      "inputs": [
        {
          "internalType": "address",
          "name": "_who",
          "type": "address"
        }
      ],
      "name": "setUniqueMood",
      "outputs": [],
      "stateMutability": "nonpayable",
      "type": "function"
    }
  ],
  "bytecode": "0x608060405234801561001057600080fd5b50336000806101000a81548173ffffffffffffffffffffffffffffffffffffffff021916908373ffffffffffffffffffffffffffffffffffffffff16021790555061136a806100606000396000f3fe60806040526004361061009c5760003560e01c80638b17c341116100645780638b17c341146101255780638da5cb5b146101625780639d0c13971461018d578063d509e0e6146101b8578063dce5004b146101c2578063fe5214ed146101cc5761009c565b806306219126146100a15780631da7f064146100ca57806369d2b352146100d45780636fb815f814610111578063768dd0841461011b575b600080fd5b3480156100ad57600080fd5b506100c860048036038101906100c3919061109d565b6101d6565b005b6100d26102ca565b005b3480156100e057600080fd5b506100fb60048036038101906100f6919061109d565b610406565b6040516101089190611141565b60405180910390f35b610119610426565b005b610123610562565b005b34801561013157600080fd5b5061014c6004803603810190610147919061109d565b61069e565b60405161015991906111f5565b60405180910390f35b34801561016e57600080fd5b5061017761073e565b6040516101849190611226565b60405180910390f35b34801561019957600080fd5b506101a2610762565b6040516101af91906111f5565b60405180910390f35b6101c0610be4565b005b6101ca610d20565b005b6101d4610e5b565b005b6007600160008373ffffffffffffffffffffffffffffffffffffffff1673ffffffffffffffffffffffffffffffffffffffff16815260200190815260200160002060006101000a81548160ff02191690836007811115610239576102386110ca565b5b02179055506040518060400160405280600581526020017f4d6f6f6479000000000000000000000000000000000000000000000000000000815250600260008373ffffffffffffffffffffffffffffffffffffffff1673ffffffffffffffffffffffffffffffffffffffff16815260200190815260200160002090805190602001906102c6929190610f97565b5050565b66470de4df8200003414610313576040517f08c379a000000000000000000000000000000000000000000000000000000000815260040161030a906112b3565b60405180910390fd5b6002600160003373ffffffffffffffffffffffffffffffffffffffff1673ffffffffffffffffffffffffffffffffffffffff16815260200190815260200160002060006101000a81548160ff02191690836007811115610376576103756110ca565b5b02179055506040518060400160405280600381526020017f5361640000000000000000000000000000000000000000000000000000000000815250600260003373ffffffffffffffffffffffffffffffffffffffff1673ffffffffffffffffffffffffffffffffffffffff1681526020019081526020016000209080519060200190610403929190610f97565b50565b60016020528060005260406000206000915054906101000a900460ff1681565b66470de4df820000341461046f576040517f08c379a0000000000000000000000000000000000000000000000000000000008152600401610466906112b3565b60405180910390fd5b6004600160003373ffffffffffffffffffffffffffffffffffffffff1673ffffffffffffffffffffffffffffffffffffffff16815260200190815260200160002060006101000a81548160ff021916908360078111156104d2576104d16110ca565b5b02179055506040518060400160405280600681526020017f4c6f6e656c790000000000000000000000000000000000000000000000000000815250600260003373ffffffffffffffffffffffffffffffffffffffff1673ffffffffffffffffffffffffffffffffffffffff168152602001908152602001600020908051906020019061055f929190610f97565b50565b66470de4df82000034146105ab576040517f08c379a00000000000000000000000000000000000000000000000000000000081526004016105a2906112b3565b60405180910390fd5b6003600160003373ffffffffffffffffffffffffffffffffffffffff1673ffffffffffffffffffffffffffffffffffffffff16815260200190815260200160002060006101000a81548160ff0219169083600781111561060e5761060d6110ca565b5b02179055506040518060400160405280600a81526020017f507572706f736566756c00000000000000000000000000000000000000000000815250600260003373ffffffffffffffffffffffffffffffffffffffff1673ffffffffffffffffffffffffffffffffffffffff168152602001908152602001600020908051906020019061069b929190610f97565b50565b600260205280600052604060002060009150905080546106bd90611302565b80601f01602080910402602001604051908101604052809291908181526020018280546106e990611302565b80156107365780601f1061070b57610100808354040283529160200191610736565b820191906000526020600020905b81548152906001019060200180831161071957829003601f168201915b505050505081565b60008054906101000a900473ffffffffffffffffffffffffffffffffffffffff1681565b606060006007811115610778576107776110ca565b5b600160003373ffffffffffffffffffffffffffffffffffffffff1673ffffffffffffffffffffffffffffffffffffffff16815260200190815260200160002060009054906101000a900460ff1660078111156107d7576107d66110ca565b5b141561081a576040518060400160405280600581526020017f48617070790000000000000000000000000000000000000000000000000000008152509050610be1565b6001600781111561082e5761082d6110ca565b5b600160003373ffffffffffffffffffffffffffffffffffffffff1673ffffffffffffffffffffffffffffffffffffffff16815260200190815260200160002060009054906101000a900460ff16600781111561088d5761088c6110ca565b5b14156108d0576040518060400160405280600781526020017f416e78696f7573000000000000000000000000000000000000000000000000008152509050610be1565b600260078111156108e4576108e36110ca565b5b600160003373ffffffffffffffffffffffffffffffffffffffff1673ffffffffffffffffffffffffffffffffffffffff16815260200190815260200160002060009054906101000a900460ff166007811115610943576109426110ca565b5b1415610986576040518060400160405280600381526020017f53616400000000000000000000000000000000000000000000000000000000008152509050610be1565b6003600781111561099a576109996110ca565b5b600160003373ffffffffffffffffffffffffffffffffffffffff1673ffffffffffffffffffffffffffffffffffffffff16815260200190815260200160002060009054906101000a900460ff1660078111156109f9576109f86110ca565b5b1415610a3c576040518060400160405280600a81526020017f507572706f736566756c000000000000000000000000000000000000000000008152509050610be1565b60046007811115610a5057610a4f6110ca565b5b600160003373ffffffffffffffffffffffffffffffffffffffff1673ffffffffffffffffffffffffffffffffffffffff16815260200190815260200160002060009054906101000a900460ff166007811115610aaf57610aae6110ca565b5b1415610af2576040518060400160405280600681526020017f4c6f6e656c7900000000000000000000000000000000000000000000000000008152509050610be1565b60056007811115610b0657610b056110ca565b5b600160003373ffffffffffffffffffffffffffffffffffffffff1673ffffffffffffffffffffffffffffffffffffffff16815260200190815260200160002060009054906101000a900460ff166007811115610b6557610b646110ca565b5b1415610ba8576040518060400160405280600981526020017f5061696e66756c6c7900000000000000000000000000000000000000000000008152509050610be1565b6040518060400160405280600681526020017f4e6f4d6f6f64000000000000000000000000000000000000000000000000000081525090505b90565b66470de4df8200003414610c2d576040517f08c379a0000000000000000000000000000000000000000000000000000000008152600401610c24906112b3565b60405180910390fd5b6000600160003373ffffffffffffffffffffffffffffffffffffffff1673ffffffffffffffffffffffffffffffffffffffff16815260200190815260200160002060006101000a81548160ff02191690836007811115610c9057610c8f6110ca565b5b02179055506040518060400160405280600581526020017f4861707079000000000000000000000000000000000000000000000000000000815250600260003373ffffffffffffffffffffffffffffffffffffffff1673ffffffffffffffffffffffffffffffffffffffff1681526020019081526020016000209080519060200190610d1d929190610f97565b50565b66470de4df8200003414610d69576040517f08c379a0000000000000000000000000000000000000000000000000000000008152600401610d60906112b3565b60405180910390fd5b60018060003373ffffffffffffffffffffffffffffffffffffffff1673ffffffffffffffffffffffffffffffffffffffff16815260200190815260200160002060006101000a81548160ff02191690836007811115610dcb57610dca6110ca565b5b02179055506040518060400160405280600781526020017f416e78696f757300000000000000000000000000000000000000000000000000815250600260003373ffffffffffffffffffffffffffffffffffffffff1673ffffffffffffffffffffffffffffffffffffffff1681526020019081526020016000209080519060200190610e58929190610f97565b50565b66470de4df8200003414610ea4576040517f08c379a0000000000000000000000000000000000000000000000000000000008152600401610e9b906112b3565b60405180910390fd5b6005600160003373ffffffffffffffffffffffffffffffffffffffff1673ffffffffffffffffffffffffffffffffffffffff16815260200190815260200160002060006101000a81548160ff02191690836007811115610f0757610f066110ca565b5b02179055506040518060400160405280600981526020017f5061696e66756c6c790000000000000000000000000000000000000000000000815250600260003373ffffffffffffffffffffffffffffffffffffffff1673ffffffffffffffffffffffffffffffffffffffff1681526020019081526020016000209080519060200190610f94929190610f97565b50565b828054610fa390611302565b90600052602060002090601f016020900481019282610fc5576000855561100c565b82601f10610fde57805160ff191683800117855561100c565b8280016001018555821561100c579182015b8281111561100b578251825591602001919060010190610ff0565b5b509050611019919061101d565b5090565b5b8082111561103657600081600090555060010161101e565b5090565b600080fd5b600073ffffffffffffffffffffffffffffffffffffffff82169050919050565b600061106a8261103f565b9050919050565b61107a8161105f565b811461108557600080fd5b50565b60008135905061109781611071565b92915050565b6000602082840312156110b3576110b261103a565b5b60006110c184828501611088565b91505092915050565b7f4e487b7100000000000000000000000000000000000000000000000000000000600052602160045260246000fd5b6008811061110a576111096110ca565b5b50565b600081905061111b826110f9565b919050565b600061112b8261110d565b9050919050565b61113b81611120565b82525050565b60006020820190506111566000830184611132565b92915050565b600081519050919050565b600082825260208201905092915050565b60005b8381101561119657808201518184015260208101905061117b565b838111156111a5576000848401525b50505050565b6000601f19601f8301169050919050565b60006111c78261115c565b6111d18185611167565b93506111e1818560208601611178565b6111ea816111ab565b840191505092915050565b6000602082019050818103600083015261120f81846111bc565b905092915050565b6112208161105f565b82525050565b600060208201905061123b6000830184611217565b92915050565b7f596f75206e65656420746f2073656e6420302e30322065746820746f2073657460008201527f20596f7572204d6f6f6420616e64204765742073757270726973650000000000602082015250565b600061129d603b83611167565b91506112a882611241565b604082019050919050565b600060208201905081810360008301526112cc81611290565b9050919050565b7f4e487b7100000000000000000000000000000000000000000000000000000000600052602260045260246000fd5b6000600282049050600182168061131a57607f821691505b6020821081141561132e5761132d6112d3565b5b5091905056fea2646970667358221220c5cb27039e803151d72459af12fa2f23b5eb2af39c2cec85a68eded38944c46964736f6c634300080a0033",
  "immutableReferences": {},
  "source": "// SPDX-License-Identifier: UNLICENSED\npragma solidity 0.8.10;\n\n\ncontract Mood {\n    //vars\n    address public owner;\n    enum MoodStates { Happy, Anxious, Sad, Purposeful, Lonely, Painfully, NoMood, Moody }\n    mapping (address => MoodStates) public moods;\n    mapping (address => string) public moodsStr;\n\n    //constructor\n    constructor(){\n        owner = msg.sender;\n    }\n\n    function getMood() public view returns(string memory){\n        if(moods[msg.sender] == MoodStates.Happy){\n            return \"Happy\";\n        }\n        else if (moods[msg.sender] == MoodStates.Anxious) {\n            return \"Anxious\";\n        }\n        else if (moods[msg.sender] == MoodStates.Sad) {\n            return \"Sad\";\n        }\n        else if (moods[msg.sender] == MoodStates.Purposeful) {\n            return \"Purposeful\";\n        }\n        else if (moods[msg.sender] == MoodStates.Lonely) {\n            return \"Lonely\";\n        }\n        else if (moods[msg.sender] == MoodStates.Painfully) {\n            return \"Painfully\";\n        }\n        else {\n            return \"NoMood\";\n        }\n    }\n\n\n    function setHappyMood() public payable YouCantAfford {\n        moods[msg.sender] = MoodStates.Happy;\n        moodsStr[msg.sender] = \"Happy\";\n    }\n\n    function setAnxiousMood() public payable YouCantAfford {\n        moods[msg.sender] = MoodStates.Anxious;\n        moodsStr[msg.sender] = \"Anxious\";\n\n    }\n\n    function setSadMood() public payable YouCantAfford {\n        moods[msg.sender] = MoodStates.Sad;\n        moodsStr[msg.sender] = \"Sad\";\n\n    }\n\n    function setPurposefulMood() public payable YouCantAfford {\n        moods[msg.sender] = MoodStates.Purposeful;\n        moodsStr[msg.sender] = \"Purposeful\";\n\n    }\n\n    function setLonelyMood() public payable YouCantAfford {\n        moods[msg.sender] = MoodStates.Lonely;   \n        moodsStr[msg.sender] = \"Lonely\";\n\n    }\n\n    function setPainfullyMood() public payable YouCantAfford {\n        moods[msg.sender] = MoodStates.Painfully;\n        moodsStr[msg.sender] = \"Painfully\";\n    }\n    function setUniqueMood(address _who) public {\n        moods[_who] = MoodStates.Moody;\n        moodsStr[_who] = \"Moody\";\n    }\n\n    modifier YouCantAfford {\n        require(msg.value == 0.02 ether, \"You need to send 0.02 eth to set Your Mood and Get surprise\");\n        _;\n    }\n}",
  "sourcePath": "/Volumes/LaCie/Mood Website/mood-app/contracts/Mood.sol",
  "compiler": {
    "name": "solc",
    "version": "0.8.10+commit.fc410830.Emscripten.clang"
  },
  "schemaVersion": "3.4.8",
  "updatedAt": "2022-07-23T21:50:47.852Z",
  "networkType": "ethereum",
  "devdoc": {
    "kind": "dev",
    "methods": {},
    "version": 1
  },
  "userdoc": {
    "kind": "user",
    "methods": {},
    "version": 1
  }
}