{
  "contractName": "Mood",
  "abi": [
    {
      "inputs": [],
      "stateMutability": "nonpayable",
      "type": "constructor"
    },
    {
      "inputs": [
        {
          "internalType": "address",
          "name": "",
          "type": "address"
        }
      ],
      "name": "moods",
      "outputs": [
        {
          "internalType": "enum Mood.MoodStates",
          "name": "",
          "type": "uint8"
        }
      ],
      "stateMutability": "view",
      "type": "function",
      "constant": true
    },
    {
      "inputs": [
        {
          "internalType": "address",
          "name": "",
          "type": "address"
        }
      ],
      "name": "moodsStr",
      "outputs": [
        {
          "internalType": "string",
          "name": "",
          "type": "string"
        }
      ],
      "stateMutability": "view",
      "type": "function",
      "constant": true
    },
    {
      "inputs": [],
      "name": "owner",
      "outputs": [
        {
          "internalType": "address",
          "name": "",
          "type": "address"
        }
      ],
      "stateMutability": "view",
      "type": "function",
      "constant": true
    },
    {
      "inputs": [],
      "name": "getMood",
      "outputs": [
        {
          "internalType": "string",
          "name": "",
          "type": "string"
        }
      ],
      "stateMutability": "view",
      "type": "function",
      "constant": true
    },
    {
      "inputs": [],
      "name": "setHappyMood",
      "outputs": [],
      "stateMutability": "payable",
      "type": "function",
      "payable": true
    },
    {
      "inputs": [],
      "name": "setAnxiousMood",
      "outputs": [],
      "stateMutability": "payable",
      "type": "function",
      "payable": true
    },
    {
      "inputs": [],
      "name": "setSadMood",
      "outputs": [],
      "stateMutability": "payable",
      "type": "function",
      "payable": true
    },
    {
      "inputs": [],
      "name": "setPurposefulMood",
      "outputs": [],
      "stateMutability": "payable",
      "type": "function",
      "payable": true
    },
    {
      "inputs": [],
      "name": "setLonelyMood",
      "outputs": [],
      "stateMutability": "payable",
      "type": "function",
      "payable": true
    },
    {
      "inputs": [],
      "name": "setPainfullyMood",
      "outputs": [],
      "stateMutability": "payable",
      "type": "function",
      "payable": true
    }
  ],
  "bytecode": "0x608060405234801561001057600080fd5b50336000806101000a81548173ffffffffffffffffffffffffffffffffffffffff021916908373ffffffffffffffffffffffffffffffffffffffff160217905550611242806100606000396000f3fe6080604052600436106100915760003560e01c80638da5cb5b116100595780638da5cb5b1461012e5780639d0c139714610159578063d509e0e614610184578063dce5004b1461018e578063fe5214ed1461019857610091565b80631da7f0641461009657806369d2b352146100a05780636fb815f8146100dd578063768dd084146100e75780638b17c341146100f1575b600080fd5b61009e6101a2565b005b3480156100ac57600080fd5b506100c760048036038101906100c29190610f75565b6102de565b6040516100d49190611019565b60405180910390f35b6100e56102fe565b005b6100ef61043a565b005b3480156100fd57600080fd5b5061011860048036038101906101139190610f75565b610576565b60405161012591906110cd565b60405180910390f35b34801561013a57600080fd5b50610143610616565b60405161015091906110fe565b60405180910390f35b34801561016557600080fd5b5061016e61063a565b60405161017b91906110cd565b60405180910390f35b61018c610abc565b005b610196610bf8565b005b6101a0610d33565b005b66470de4df82000034146101eb576040517f08c379a00000000000000000000000000000000000000000000000000000000081526004016101e29061118b565b60405180910390fd5b6002600160003373ffffffffffffffffffffffffffffffffffffffff1673ffffffffffffffffffffffffffffffffffffffff16815260200190815260200160002060006101000a81548160ff0219169083600681111561024e5761024d610fa2565b5b02179055506040518060400160405280600381526020017f5361640000000000000000000000000000000000000000000000000000000000815250600260003373ffffffffffffffffffffffffffffffffffffffff1673ffffffffffffffffffffffffffffffffffffffff16815260200190815260200160002090805190602001906102db929190610e6f565b50565b60016020528060005260406000206000915054906101000a900460ff1681565b66470de4df8200003414610347576040517f08c379a000000000000000000000000000000000000000000000000000000000815260040161033e9061118b565b60405180910390fd5b6004600160003373ffffffffffffffffffffffffffffffffffffffff1673ffffffffffffffffffffffffffffffffffffffff16815260200190815260200160002060006101000a81548160ff021916908360068111156103aa576103a9610fa2565b5b02179055506040518060400160405280600681526020017f4c6f6e656c790000000000000000000000000000000000000000000000000000815250600260003373ffffffffffffffffffffffffffffffffffffffff1673ffffffffffffffffffffffffffffffffffffffff1681526020019081526020016000209080519060200190610437929190610e6f565b50565b66470de4df8200003414610483576040517f08c379a000000000000000000000000000000000000000000000000000000000815260040161047a9061118b565b60405180910390fd5b6003600160003373ffffffffffffffffffffffffffffffffffffffff1673ffffffffffffffffffffffffffffffffffffffff16815260200190815260200160002060006101000a81548160ff021916908360068111156104e6576104e5610fa2565b5b02179055506040518060400160405280600a81526020017f507572706f736566756c00000000000000000000000000000000000000000000815250600260003373ffffffffffffffffffffffffffffffffffffffff1673ffffffffffffffffffffffffffffffffffffffff1681526020019081526020016000209080519060200190610573929190610e6f565b50565b60026020528060005260406000206000915090508054610595906111da565b80601f01602080910402602001604051908101604052809291908181526020018280546105c1906111da565b801561060e5780601f106105e35761010080835404028352916020019161060e565b820191906000526020600020905b8154815290600101906020018083116105f157829003601f168201915b505050505081565b60008054906101000a900473ffffffffffffffffffffffffffffffffffffffff1681565b6060600060068111156106505761064f610fa2565b5b600160003373ffffffffffffffffffffffffffffffffffffffff1673ffffffffffffffffffffffffffffffffffffffff16815260200190815260200160002060009054906101000a900460ff1660068111156106af576106ae610fa2565b5b14156106f2576040518060400160405280600581526020017f48617070790000000000000000000000000000000000000000000000000000008152509050610ab9565b6001600681111561070657610705610fa2565b5b600160003373ffffffffffffffffffffffffffffffffffffffff1673ffffffffffffffffffffffffffffffffffffffff16815260200190815260200160002060009054906101000a900460ff16600681111561076557610764610fa2565b5b14156107a8576040518060400160405280600781526020017f416e78696f7573000000000000000000000000000000000000000000000000008152509050610ab9565b600260068111156107bc576107bb610fa2565b5b600160003373ffffffffffffffffffffffffffffffffffffffff1673ffffffffffffffffffffffffffffffffffffffff16815260200190815260200160002060009054906101000a900460ff16600681111561081b5761081a610fa2565b5b141561085e576040518060400160405280600381526020017f53616400000000000000000000000000000000000000000000000000000000008152509050610ab9565b6003600681111561087257610871610fa2565b5b600160003373ffffffffffffffffffffffffffffffffffffffff1673ffffffffffffffffffffffffffffffffffffffff16815260200190815260200160002060009054906101000a900460ff1660068111156108d1576108d0610fa2565b5b1415610914576040518060400160405280600a81526020017f507572706f736566756c000000000000000000000000000000000000000000008152509050610ab9565b6004600681111561092857610927610fa2565b5b600160003373ffffffffffffffffffffffffffffffffffffffff1673ffffffffffffffffffffffffffffffffffffffff16815260200190815260200160002060009054906101000a900460ff16600681111561098757610986610fa2565b5b14156109ca576040518060400160405280600681526020017f4c6f6e656c7900000000000000000000000000000000000000000000000000008152509050610ab9565b600560068111156109de576109dd610fa2565b5b600160003373ffffffffffffffffffffffffffffffffffffffff1673ffffffffffffffffffffffffffffffffffffffff16815260200190815260200160002060009054906101000a900460ff166006811115610a3d57610a3c610fa2565b5b1415610a80576040518060400160405280600981526020017f5061696e66756c6c7900000000000000000000000000000000000000000000008152509050610ab9565b6040518060400160405280600681526020017f4e6f4d6f6f64000000000000000000000000000000000000000000000000000081525090505b90565b66470de4df8200003414610b05576040517f08c379a0000000000000000000000000000000000000000000000000000000008152600401610afc9061118b565b60405180910390fd5b6000600160003373ffffffffffffffffffffffffffffffffffffffff1673ffffffffffffffffffffffffffffffffffffffff16815260200190815260200160002060006101000a81548160ff02191690836006811115610b6857610b67610fa2565b5b02179055506040518060400160405280600581526020017f4861707079000000000000000000000000000000000000000000000000000000815250600260003373ffffffffffffffffffffffffffffffffffffffff1673ffffffffffffffffffffffffffffffffffffffff1681526020019081526020016000209080519060200190610bf5929190610e6f565b50565b66470de4df8200003414610c41576040517f08c379a0000000000000000000000000000000000000000000000000000000008152600401610c389061118b565b60405180910390fd5b60018060003373ffffffffffffffffffffffffffffffffffffffff1673ffffffffffffffffffffffffffffffffffffffff16815260200190815260200160002060006101000a81548160ff02191690836006811115610ca357610ca2610fa2565b5b02179055506040518060400160405280600781526020017f416e78696f757300000000000000000000000000000000000000000000000000815250600260003373ffffffffffffffffffffffffffffffffffffffff1673ffffffffffffffffffffffffffffffffffffffff1681526020019081526020016000209080519060200190610d30929190610e6f565b50565b66470de4df8200003414610d7c576040517f08c379a0000000000000000000000000000000000000000000000000000000008152600401610d739061118b565b60405180910390fd5b6005600160003373ffffffffffffffffffffffffffffffffffffffff1673ffffffffffffffffffffffffffffffffffffffff16815260200190815260200160002060006101000a81548160ff02191690836006811115610ddf57610dde610fa2565b5b02179055506040518060400160405280600981526020017f5061696e66756c6c790000000000000000000000000000000000000000000000815250600260003373ffffffffffffffffffffffffffffffffffffffff1673ffffffffffffffffffffffffffffffffffffffff1681526020019081526020016000209080519060200190610e6c929190610e6f565b50565b828054610e7b906111da565b90600052602060002090601f016020900481019282610e9d5760008555610ee4565b82601f10610eb657805160ff1916838001178555610ee4565b82800160010185558215610ee4579182015b82811115610ee3578251825591602001919060010190610ec8565b5b509050610ef19190610ef5565b5090565b5b80821115610f0e576000816000905550600101610ef6565b5090565b600080fd5b600073ffffffffffffffffffffffffffffffffffffffff82169050919050565b6000610f4282610f17565b9050919050565b610f5281610f37565b8114610f5d57600080fd5b50565b600081359050610f6f81610f49565b92915050565b600060208284031215610f8b57610f8a610f12565b5b6000610f9984828501610f60565b91505092915050565b7f4e487b7100000000000000000000000000000000000000000000000000000000600052602160045260246000fd5b60078110610fe257610fe1610fa2565b5b50565b6000819050610ff382610fd1565b919050565b600061100382610fe5565b9050919050565b61101381610ff8565b82525050565b600060208201905061102e600083018461100a565b92915050565b600081519050919050565b600082825260208201905092915050565b60005b8381101561106e578082015181840152602081019050611053565b8381111561107d576000848401525b50505050565b6000601f19601f8301169050919050565b600061109f82611034565b6110a9818561103f565b93506110b9818560208601611050565b6110c281611083565b840191505092915050565b600060208201905081810360008301526110e78184611094565b905092915050565b6110f881610f37565b82525050565b600060208201905061111360008301846110ef565b92915050565b7f596f75206e65656420746f2073656e6420312065746820746f2073657420596f60008201527f7572204d6f6f6420616e64204765742073757270726973650000000000000000602082015250565b600061117560388361103f565b915061118082611119565b604082019050919050565b600060208201905081810360008301526111a481611168565b9050919050565b7f4e487b7100000000000000000000000000000000000000000000000000000000600052602260045260246000fd5b600060028204905060018216806111f257607f821691505b60208210811415611206576112056111ab565b5b5091905056fea2646970667358221220f1f5773f312e791b5a512d4e94f552352904f4a9b768eaf7a56ae4b48bb5727264736f6c634300080a0033",
  "immutableReferences": {},
  "source": "// SPDX-License-Identifier: UNLICENSED\npragma solidity 0.8.10;\n\ncontract Mood {\n    //vars\n    address public owner;\n    enum MoodStates { Happy, Anxious, Sad, Purposeful, Lonely, Painfully, NoMood }\n    mapping (address => MoodStates) public moods;\n    mapping (address => string) public moodsStr;\n\n    //constructor\n    constructor(){\n        owner = msg.sender;\n    }\n\n    function getMood() public view returns(string memory){\n        if(moods[msg.sender] == MoodStates.Happy){\n            return \"Happy\";\n        }\n        else if (moods[msg.sender] == MoodStates.Anxious) {\n            return \"Anxious\";\n        }\n        else if (moods[msg.sender] == MoodStates.Sad) {\n            return \"Sad\";\n        }\n        else if (moods[msg.sender] == MoodStates.Purposeful) {\n            return \"Purposeful\";\n        }\n        else if (moods[msg.sender] == MoodStates.Lonely) {\n            return \"Lonely\";\n        }\n        else if (moods[msg.sender] == MoodStates.Painfully) {\n            return \"Painfully\";\n        }\n        else {\n            return \"NoMood\";\n        }\n    }\n\n    function setHappyMood() public payable YouCantAfford {\n        moods[msg.sender] = MoodStates.Happy;\n        moodsStr[msg.sender] = \"Happy\";\n    }\n\n    function setAnxiousMood() public payable YouCantAfford {\n        moods[msg.sender] = MoodStates.Anxious;\n        moodsStr[msg.sender] = \"Anxious\";\n\n    }\n\n    function setSadMood() public payable YouCantAfford {\n        moods[msg.sender] = MoodStates.Sad;\n        moodsStr[msg.sender] = \"Sad\";\n\n    }\n\n    function setPurposefulMood() public payable YouCantAfford {\n        moods[msg.sender] = MoodStates.Purposeful;\n        moodsStr[msg.sender] = \"Purposeful\";\n\n    }\n\n    function setLonelyMood() public payable YouCantAfford {\n        moods[msg.sender] = MoodStates.Lonely;   \n        moodsStr[msg.sender] = \"Lonely\";\n\n    }\n\n    function setPainfullyMood() public payable YouCantAfford {\n        moods[msg.sender] = MoodStates.Painfully;\n        moodsStr[msg.sender] = \"Painfully\";\n\n    }\n\n    modifier YouCantAfford {\n        require(msg.value == 0.02 ether, \"You need to send 1 eth to set Your Mood and Get surprise\");\n        _;\n    }\n}",
  "sourcePath": "/Volumes/LaCie/Mood Website/mood-app/contracts/Mood.sol",
  "compiler": {
    "name": "solc",
    "version": "0.8.10+commit.fc410830.Emscripten.clang"
  },
  "schemaVersion": "3.4.8",
  "updatedAt": "2022-07-22T14:34:48.404Z",
  "networkType": "ethereum",
  "devdoc": {
    "kind": "dev",
    "methods": {},
    "version": 1
  },
  "userdoc": {
    "kind": "user",
    "methods": {},
    "version": 1
  }
}