{
  "contractName": "MoodySwap",
  "abi": [
    {
      "inputs": [
        {
          "internalType": "contract MoodyToken",
          "name": "_token",
          "type": "address"
        },
        {
          "internalType": "contract Mood",
          "name": "_mood",
          "type": "address"
        }
      ],
      "stateMutability": "nonpayable",
      "type": "constructor"
    },
    {
      "anonymous": false,
      "inputs": [
        {
          "indexed": false,
          "internalType": "address",
          "name": "account",
          "type": "address"
        },
        {
          "indexed": false,
          "internalType": "address",
          "name": "token",
          "type": "address"
        },
        {
          "indexed": false,
          "internalType": "uint256",
          "name": "amount",
          "type": "uint256"
        },
        {
          "indexed": false,
          "internalType": "uint256",
          "name": "rate",
          "type": "uint256"
        }
      ],
      "name": "TokensPurchased",
      "type": "event"
    },
    {
      "anonymous": false,
      "inputs": [
        {
          "indexed": false,
          "internalType": "address",
          "name": "account",
          "type": "address"
        },
        {
          "indexed": false,
          "internalType": "address",
          "name": "token",
          "type": "address"
        },
        {
          "indexed": false,
          "internalType": "uint256",
          "name": "amount",
          "type": "uint256"
        },
        {
          "indexed": false,
          "internalType": "uint256",
          "name": "rate",
          "type": "uint256"
        }
      ],
      "name": "TokensSold",
      "type": "event"
    },
    {
      "anonymous": false,
      "inputs": [
        {
          "indexed": false,
          "internalType": "address",
          "name": "account",
          "type": "address"
        },
        {
          "indexed": false,
          "internalType": "address",
          "name": "token",
          "type": "address"
        },
        {
          "indexed": false,
          "internalType": "uint256",
          "name": "amount",
          "type": "uint256"
        }
      ],
      "name": "UniqueMood",
      "type": "event"
    },
    {
      "inputs": [],
      "name": "mood",
      "outputs": [
        {
          "internalType": "contract Mood",
          "name": "",
          "type": "address"
        }
      ],
      "stateMutability": "view",
      "type": "function",
      "constant": true
    },
    {
      "inputs": [],
      "name": "name",
      "outputs": [
        {
          "internalType": "string",
          "name": "",
          "type": "string"
        }
      ],
      "stateMutability": "view",
      "type": "function",
      "constant": true
    },
    {
      "inputs": [],
      "name": "rate",
      "outputs": [
        {
          "internalType": "uint256",
          "name": "",
          "type": "uint256"
        }
      ],
      "stateMutability": "view",
      "type": "function",
      "constant": true
    },
    {
      "inputs": [],
      "name": "token",
      "outputs": [
        {
          "internalType": "contract MoodyToken",
          "name": "",
          "type": "address"
        }
      ],
      "stateMutability": "view",
      "type": "function",
      "constant": true
    },
    {
      "inputs": [],
      "name": "buyTokens",
      "outputs": [],
      "stateMutability": "payable",
      "type": "function",
      "payable": true
    },
    {
      "inputs": [
        {
          "internalType": "uint256",
          "name": "_amount",
          "type": "uint256"
        }
      ],
      "name": "sellTokens",
      "outputs": [],
      "stateMutability": "nonpayable",
      "type": "function"
    },
    {
      "inputs": [
        {
          "internalType": "uint256",
          "name": "_amount",
          "type": "uint256"
        }
      ],
      "name": "GetUniqueMood",
      "outputs": [],
      "stateMutability": "nonpayable",
      "type": "function"
    }
  ],
  "bytecode": "0x60806040526040518060400160405280601a81526020017f4d6f6f64795377617020496e7374616e742045786368616e6765000000000000815250600090805190602001906200005192919062000114565b5060646003553480156200006457600080fd5b50604051620010d8380380620010d883398181016040528101906200008a919062000287565b81600160006101000a81548173ffffffffffffffffffffffffffffffffffffffff021916908373ffffffffffffffffffffffffffffffffffffffff16021790555080600260006101000a81548173ffffffffffffffffffffffffffffffffffffffff021916908373ffffffffffffffffffffffffffffffffffffffff160217905550505062000333565b8280546200012290620002fd565b90600052602060002090601f01602090048101928262000146576000855562000192565b82601f106200016157805160ff191683800117855562000192565b8280016001018555821562000192579182015b828111156200019157825182559160200191906001019062000174565b5b509050620001a19190620001a5565b5090565b5b80821115620001c0576000816000905550600101620001a6565b5090565b600080fd5b600073ffffffffffffffffffffffffffffffffffffffff82169050919050565b6000620001f682620001c9565b9050919050565b60006200020a82620001e9565b9050919050565b6200021c81620001fd565b81146200022857600080fd5b50565b6000815190506200023c8162000211565b92915050565b60006200024f82620001e9565b9050919050565b620002618162000242565b81146200026d57600080fd5b50565b600081519050620002818162000256565b92915050565b60008060408385031215620002a157620002a0620001c4565b5b6000620002b1858286016200022b565b9250506020620002c48582860162000270565b9150509250929050565b7f4e487b7100000000000000000000000000000000000000000000000000000000600052602260045260246000fd5b600060028204905060018216806200031657607f821691505b602082108114156200032d576200032c620002ce565b5b50919050565b610d9580620003436000396000f3fe6080604052600436106100705760003560e01c806370ffe53d1161004e57806370ffe53d146100f4578063d0febe4c1461011f578063dc82b44314610129578063fc0c546a1461015257610070565b806306fdde03146100755780632c4e722e146100a05780636c11bcd3146100cb575b600080fd5b34801561008157600080fd5b5061008a61017d565b6040516100979190610903565b60405180910390f35b3480156100ac57600080fd5b506100b561020b565b6040516100c2919061093e565b60405180910390f35b3480156100d757600080fd5b506100f260048036038101906100ed919061098a565b610211565b005b34801561010057600080fd5b50610109610427565b6040516101169190610a36565b60405180910390f35b61012761044d565b005b34801561013557600080fd5b50610150600480360381019061014b919061098a565b61060c565b005b34801561015e57600080fd5b50610167610844565b6040516101749190610a72565b60405180910390f35b6000805461018a90610abc565b80601f01602080910402602001604051908101604052809291908181526020018280546101b690610abc565b80156102035780601f106101d857610100808354040283529160200191610203565b820191906000526020600020905b8154815290600101906020018083116101e657829003601f168201915b505050505081565b60035481565b80600160009054906101000a900473ffffffffffffffffffffffffffffffffffffffff1673ffffffffffffffffffffffffffffffffffffffff166370a08231336040518263ffffffff1660e01b815260040161026d9190610b0f565b602060405180830381865afa15801561028a573d6000803e3d6000fd5b505050506040513d601f19601f820116820180604052508101906102ae9190610b3f565b10156102b957600080fd5b6000600354826102c99190610bca565b9050804710156102d857600080fd5b600160009054906101000a900473ffffffffffffffffffffffffffffffffffffffff1673ffffffffffffffffffffffffffffffffffffffff166323b872dd3330856040518463ffffffff1660e01b815260040161033793929190610bfb565b6020604051808303816000875af1158015610356573d6000803e3d6000fd5b505050506040513d601f19601f8201168201806040525081019061037a9190610c6a565b503373ffffffffffffffffffffffffffffffffffffffff166108fc829081150290604051600060405180830381858888f193505050501580156103c1573d6000803e3d6000fd5b507f697c42d55a5e1fed3f464ec6f38b32546a0bd368dc8068b065c67566d73f329033600160009054906101000a900473ffffffffffffffffffffffffffffffffffffffff168460035460405161041b9493929190610c97565b60405180910390a15050565b600260009054906101000a900473ffffffffffffffffffffffffffffffffffffffff1681565b60006003543461045d9190610cdc565b905080600160009054906101000a900473ffffffffffffffffffffffffffffffffffffffff1673ffffffffffffffffffffffffffffffffffffffff166370a08231306040518263ffffffff1660e01b81526004016104bb9190610b0f565b602060405180830381865afa1580156104d8573d6000803e3d6000fd5b505050506040513d601f19601f820116820180604052508101906104fc9190610b3f565b101561050757600080fd5b600160009054906101000a900473ffffffffffffffffffffffffffffffffffffffff1673ffffffffffffffffffffffffffffffffffffffff1663a9059cbb33836040518363ffffffff1660e01b8152600401610564929190610d36565b6020604051808303816000875af1158015610583573d6000803e3d6000fd5b505050506040513d601f19601f820116820180604052508101906105a79190610c6a565b507f6faf93231a456e552dbc9961f58d9713ee4f2e69d15f1975b050ef0911053a7b33600160009054906101000a900473ffffffffffffffffffffffffffffffffffffffff16836003546040516106019493929190610c97565b60405180910390a150565b80600160009054906101000a900473ffffffffffffffffffffffffffffffffffffffff1673ffffffffffffffffffffffffffffffffffffffff166370a08231336040518263ffffffff1660e01b81526004016106689190610b0f565b602060405180830381865afa158015610685573d6000803e3d6000fd5b505050506040513d601f19601f820116820180604052508101906106a99190610b3f565b10156106b457600080fd5b600160009054906101000a900473ffffffffffffffffffffffffffffffffffffffff1673ffffffffffffffffffffffffffffffffffffffff166323b872dd3330846040518463ffffffff1660e01b815260040161071393929190610bfb565b6020604051808303816000875af1158015610732573d6000803e3d6000fd5b505050506040513d601f19601f820116820180604052508101906107569190610c6a565b50600260009054906101000a900473ffffffffffffffffffffffffffffffffffffffff1673ffffffffffffffffffffffffffffffffffffffff166306219126336040518263ffffffff1660e01b81526004016107b29190610b0f565b600060405180830381600087803b1580156107cc57600080fd5b505af11580156107e0573d6000803e3d6000fd5b505050507f8da66043044238d4015c6648bfc3f28eb57693f71f6e7ca8e15b1495d815214b33600160009054906101000a900473ffffffffffffffffffffffffffffffffffffffff168360405161083993929190610bfb565b60405180910390a150565b600160009054906101000a900473ffffffffffffffffffffffffffffffffffffffff1681565b600081519050919050565b600082825260208201905092915050565b60005b838110156108a4578082015181840152602081019050610889565b838111156108b3576000848401525b50505050565b6000601f19601f8301169050919050565b60006108d58261086a565b6108df8185610875565b93506108ef818560208601610886565b6108f8816108b9565b840191505092915050565b6000602082019050818103600083015261091d81846108ca565b905092915050565b6000819050919050565b61093881610925565b82525050565b6000602082019050610953600083018461092f565b92915050565b600080fd5b61096781610925565b811461097257600080fd5b50565b6000813590506109848161095e565b92915050565b6000602082840312156109a05761099f610959565b5b60006109ae84828501610975565b91505092915050565b600073ffffffffffffffffffffffffffffffffffffffff82169050919050565b6000819050919050565b60006109fc6109f76109f2846109b7565b6109d7565b6109b7565b9050919050565b6000610a0e826109e1565b9050919050565b6000610a2082610a03565b9050919050565b610a3081610a15565b82525050565b6000602082019050610a4b6000830184610a27565b92915050565b6000610a5c82610a03565b9050919050565b610a6c81610a51565b82525050565b6000602082019050610a876000830184610a63565b92915050565b7f4e487b7100000000000000000000000000000000000000000000000000000000600052602260045260246000fd5b60006002820490506001821680610ad457607f821691505b60208210811415610ae857610ae7610a8d565b5b50919050565b6000610af9826109b7565b9050919050565b610b0981610aee565b82525050565b6000602082019050610b246000830184610b00565b92915050565b600081519050610b398161095e565b92915050565b600060208284031215610b5557610b54610959565b5b6000610b6384828501610b2a565b91505092915050565b7f4e487b7100000000000000000000000000000000000000000000000000000000600052601260045260246000fd5b7f4e487b7100000000000000000000000000000000000000000000000000000000600052601160045260246000fd5b6000610bd582610925565b9150610be083610925565b925082610bf057610bef610b6c565b5b828204905092915050565b6000606082019050610c106000830186610b00565b610c1d6020830185610b00565b610c2a604083018461092f565b949350505050565b60008115159050919050565b610c4781610c32565b8114610c5257600080fd5b50565b600081519050610c6481610c3e565b92915050565b600060208284031215610c8057610c7f610959565b5b6000610c8e84828501610c55565b91505092915050565b6000608082019050610cac6000830187610b00565b610cb96020830186610b00565b610cc6604083018561092f565b610cd3606083018461092f565b95945050505050565b6000610ce782610925565b9150610cf283610925565b9250817fffffffffffffffffffffffffffffffffffffffffffffffffffffffffffffffff0483118215151615610d2b57610d2a610b9b565b5b828202905092915050565b6000604082019050610d4b6000830185610b00565b610d58602083018461092f565b939250505056fea26469706673582212206a4e92fe297065ddd32f50fce035dc73d00ede85c39471af1148ac10260962ad64736f6c634300080a0033",
  "immutableReferences": {},
  "source": "// SPDX-License-Identifier: UNLICENSED\npragma solidity ^0.8.10;\n\nimport \"./MoodyToken.sol\";\nimport \"./Mood.sol\";\n\ncontract MoodySwap { \n  string public name = \"MoodySwap Instant Exchange\";\n  MoodyToken public token;\n  Mood public mood;\n  uint public rate = 100;\n\n  event TokensPurchased(\n    address account,\n    address token,\n    uint amount,\n    uint rate\n  );\n\n  event TokensSold(\n    address account,\n    address token,\n    uint amount,\n    uint rate\n  );\n\n  event UniqueMood(\n    address account,\n    address token,\n    uint amount\n  );\n\n  constructor(MoodyToken _token, Mood _mood) {\n    token = _token;\n    mood = _mood;\n  }\n\n  function buyTokens() public payable {\n    uint tokenAmount = msg.value * rate;\n\n    require(token.balanceOf(address(this)) >= tokenAmount);\n\n    token.transfer(msg.sender, tokenAmount);\n\n    emit TokensPurchased(msg.sender, address(token), tokenAmount, rate);\n  }\n\n  function sellTokens(uint _amount) public {\n    require(token.balanceOf(msg.sender) >= _amount);\n\n    uint etherAmount = _amount / rate;\n\n    require(address(this).balance >= etherAmount);\n\n    token.transferFrom(msg.sender, address(this), _amount);\n    payable(msg.sender).transfer(etherAmount);\n\n    emit TokensSold(msg.sender, address(token), _amount, rate);\n  }\n  function GetUniqueMood(uint _amount) public {\n    require(token.balanceOf(msg.sender) >= _amount);\n    token.transferFrom(msg.sender, address(this), _amount);\n    mood.setUniqueMood(msg.sender);\n    emit UniqueMood(msg.sender, address(token), _amount);\n  }\n}",
  "sourcePath": "/Volumes/LaCie/Mood Website/mood-app/contracts/MoodySwap.sol",
  "compiler": {
    "name": "solc",
    "version": "0.8.10+commit.fc410830.Emscripten.clang"
  },
  "schemaVersion": "3.4.8",
  "updatedAt": "2022-07-23T21:50:47.873Z",
  "networkType": "ethereum",
  "devdoc": {
    "kind": "dev",
    "methods": {},
    "version": 1
  },
  "userdoc": {
    "kind": "user",
    "methods": {},
    "version": 1
  }
}